S0110000626C61636B6A61636B2E737265637D
S11300000C94B5000C94D2000C94D2000C94D20041
S11300100C94D2000C94D2000C94D2000C94D20014
S11300200C94D2000C94D2000C94D2000C94D20004
S11300300C94D2000C94D4000C94D2000C94D200F2
S11300400C94D2000C94D2000C94D2000C94D200E4
S11300500C94D2000C94D2000C94D2000C94D200D4
S11300600C94D2000C94D2006E616E00696E66002E
S113007000407A10F35A00A0724E18090010A5D45B
S1130080E80000E87648170000E40B54020000CAB8
S11300909A3B000000E1F5050000809698000000FE
S11300A040420F000000A08601000000102700005D
S11300B00000E803000000006400000000000A00E3
S11300C0000000000100000000002C76D888DC67E6
S11300D04F0823DFC1DFAE59E1B1B796E5E3E4533E
S11300E0C63AE651997696E8E6C28426EB898C9B5B
S11300F062ED407C6FFCEFBC9C9F40F2BAA56FA5FB
S1130100F490055A2AF75C936B6CF9676DC11BFC7C
S1130110E0E40D47FEF520E6B500D0ED902E030097
S1130120943577050080841E080000204E0A0000E4
S113013000C80C333333330F986E12831141EF8DA3
S11301402114893BE65516CFFEE6DB18D1844B38E3
S11301501BF77C1D901DA4BBE424203284725E2214
S11301608100C9F124ECA1E53D2711241FBECFEF86
S1130170D8E0DEBFCDBF14E0A0E0B1E0E2EBFAE2EC
S113018002C005900D92AC34B107D9F727E0ACE476
S1130190B4E001C01D92AC36B207E1F70E94B10C85
S11301A00C9457150C9400001F920F920FB60F92E7
S11301B011248F939F93F89480914C0490914D0453
S11301C0019690934D0480934C0478949F918F9161
S11301D00F900FBE0F901F9018958B30910599F0DA
S11301E03CF48130910559F08A30910571F00FC0CB
S11301F08C30910531F08D30910559F008C081E4BF
S1130200089581E508958AE4089584E50895805D5C
S113021008958BE4089520E030E015C0F901EE0F55
S1130220FF1FE80FF91F11821082FC01E20FF31F78
S1130230108EF9017296EE0FFF1FE80FF91F11825D
S113024010822F5F3F4F2C30310544F3FC0115AE73
S113025014AE17AE16AEE05CFF4F118210823296D8
S113026011821082329621E030E031832083089598
S113027010926B0710926A0720E030E02FC02732FB
S1130280310534F088E6F901EA5CF84F808317C041
S11302902A31310534F084E6F901EA5CF84F8083B1
S11302A00EC02D30310534F083E6F901EA5CF84FD5
S11302B0808305C083E7F901EA5CF84F8083C901B4
S11302C06DE070E00E947C120196F901EE0FFF1FB1
S11302D0EE5BF94F918380832F5F3F4F24333105C9
S11302E074F208950F931F93CF93DF9310926B07CB
S11302F010926A07C0E0D0E02AC00E94271364E38A
S113030070E00E947C129C01220F331F2E5B394F38
S1130310F901608171818C010A5C184FF8014081F8
S1130320DE01AA0FBB1FAE5BB94F8D919C91119753
S1130330F90191838083CE018A5C984FFC0120816E
S1130340F80120836D937C93FC0140832196C43390
S1130350D1059CF2DF91CF911F910F9108958EE406
S113036094E00E940B0180EF96E00E940B0180E76D
S113037095E00E940B0186EB95E00E940B0184E955
S113038094E00E940B018AED94E00E940B018AE242
S113039095E00E940B018AEA96E00E940B018CEF23
S11303A095E00E940B010E947201089517B880E441
S11303B080937C00EAE7F0E0808186688083808116
S11303C08064808380917A0086FDFCCFEAE7F0E0C8
S11303D0808180588083809178009091790008957D
S11303E09093C5008093C40088E08093C10086E0A8
S11303F08093C2000895FC0107C09091C00095FF4E
S1130400FCCF8093C600319680818111F6CF089588
S1130410FC0180916A0790916B07843391052CF459
S113042024AD35AD2C3031052CF086E091E00E94EE
S1130430FB010895880F991FDC01AE5BB94F8D91C4
S11304409C91D901AA0FBB1FAE0FBF1F8D939C9324
S113045040916A0750916B07DA01AA5CB84F6C911E
S1130460DF01A20FB31F58966C932F5F3F4F35AF38
S113047024AF4F5F5F4F50936B0740936A078130FF
S1130480910541F0E4F09C012A50310924303105F2
S113049080F015C086AD97AD0B9697AF86AFDF01A0
S11304A0AE5BBF4F8D919C91119701968D939C9358
S11304B00CC086AD97AD0A9697AF86AF06C026AD41
S11304C037AD820F931F97AF86AF86AD97AD863158
S11304D09105C4F0DF01AE5BBF4F2D913C911197A4
S11304E01216130644F40A9797AF86AF21503109C8
S11304F02D933C9307C081E090E0DF01A05CBF4FE7
S11305008D939C93EC5BFF4F11821082089582308F
S11305109105B9F02CF40097A9F1019739F00895E9
S113052083309105C9F0049711F1089580EF96E0A6
S1130530FB01918380838AED94E0FA0191838083A7
S1130540089580E795E0FB01918380838AE295E03A
S1130550FA0191838083089586EB95E0FB019183F2
S113056080838AEA96E0FA0191838083089584E97E
S113057094E0FB01918380838CEF95E0FA019183F1
S11305808083089580E291E00E94FB010895909198
S1130590C00095FFFCCF8093C6000895CF93DF93EE
S11305A0EC0104C08AE00E94C70221971C161D06B4
S11305B0CCF3DF91CF910895CF93DF932AEE30E00F
S11305C0A901481B590BCA01EA0199230CF421968D
S11305D0D595C79504C080E20E94C70221971C16D6
S11305E01D06CCF3DF91CF910895AF92BF92CF92C5
S11305F0DF92EF92FF920F931F93CF93DF93EC015F
S1130600ACACBDACC501880F991F7C01EE0CFF1C7E
S1130610EE0CFF1CEE0CFF1CE81AF90AC7010E943D
S1130620DC02C12CD12C07C089E391E00E94FB01BC
S11306308FEFC81AD80A8501CA14DB04A8F38AE02C
S11306400E94C702C7010E94DC02C12CD12C29C020
S1130650F6017296EE0FFF1FEC0FFD1F8081918152
S1130660892B29F088E491E00E94FB0117C087E5FB
S113067091E00E94FB01F601EE0FFF1FEC0FFD1F3E
S1130680808191810E94ED000E94C7028BE591E078
S11306900E94FB0181E891E00E94FB018FEFC81AE0
S11306A0D80AC016D106A0F28AE00E94C702C70188
S11306B00E94DC02C12CD12C16C0F6017296EE0FFA
S11306C0FF1FEC0FFD1F80819181892B29F085E6A6
S11306D091E00E94FB0104C084E791E00E94FB01C9
S11306E08FEFC81AD80AC016D10638F38AE00E94E0
S11306F0C702C7010E94DC02C12CD12C39C0F6010B
S11307007296EE0FFF1FEC0FFD1F80819181892BE4
S113071029F083E891E00E94FB0127C0FE01EC0D63
S1130720FD1D808D843671F018F4833681F019C074
S1130730883619F0833781F014C082E991E00E9471
S1130740FB0113C081EA91E00E94FB010EC080EB23
S113075091E00E94FB0109C08FEB91E00E94FB0134
S113076004C08EEC91E00E94FB018FEFC81AD80AF6
S1130770C016D10620F28AE00E94C702C7010E9477
S1130780DC02C12CD12C39C0F6017296EE0FFF1F8A
S1130790EC0FFD1F80819181892B29F08DED91E073
S11307A00E94FB0127C0FE01EC0DFD1D808D8436E7
S11307B071F018F4833681F019C0883619F0833744
S11307C081F014C08CEE91E00E94FB0113C08BEF0A
S11307D091E00E94FB010EC08AE092E00E94FB01BE
S11307E009C089E192E00E94FB0104C08EEC91E013
S11307F00E94FB018FEFC81AD80AC016D10620F256
S11308008AE00E94C702C7010E94DC02C12CD12CDD
S113081039C0F6017296EE0FFF1FEC0FFD1F8081A9
S11308209181892B29F088E292E00E94FB0127C084
S1130830FE01EC0DFD1D808D843671F018F48336B5
S113084081F019C0883619F0833781F014C087E32A
S113085092E00E94FB0113C087E392E00E94FB0137
S11308600EC086E492E00E94FB0109C086E492E097
S11308700E94FB0104C08EEC91E00E94FB018FEF0B
S1130880C81AD80AC016D10620F28AE00E94C7020C
S1130890C7010E94DC02C12CD12C39C0F60172962A
S11308A0EE0FFF1FEC0FFD1F80819181892B29F032
S11308B085E592E00E94FB0127C0FE01EC0DFD1DC1
S11308C0808D843671F018F4833681F019C088362F
S11308D019F0833781F014C084E692E00E94FB0192
S11308E013C084E692E00E94FB010EC081EA91E00D
S11308F00E94FB0109C081EA91E00E94FB0104C04F
S11309008EEC91E00E94FB018FEFC81AD80AC01642
S1130910D10620F28AE00E94C702C7010E94DC02CD
S1130920C12CD12C16C0F6017296EE0FFF1FEC0FEE
S1130930FD1F80819181892B29F085E691E00E9439
S1130940FB0104C084E791E00E94FB018FEFC81A09
S1130950D80AC016D10638F38AE00E94C702C7013C
S11309600E94DC02C12CD12C29C0F6017296EE0F34
S1130970FF1FEC0FFD1F80819181892B29F088E4F2
S113098091E00E94FB0117C080E891E00E94FB0106
S11309908BE591E00E94FB01F601EE0FFF1FEC0FC7
S11309A0FD1F808191810E94ED000E94C70280E8B2
S11309B091E00E94FB018FEFC81AD80AC016D10635
S11309C0A0F28AE00E94C702C7010E94DC02C0E0D4
S11309D0D0E005C089E391E00E94FB012196C01795
S11309E0D107C0F38AE00E94C7028091040190916C
S11309F005010A979093050180930401DF91CF913B
S1130A001F910F91FF90EF90DF90CF90BF90AF9028
S1130A100895EF92FF920F931F93CF93DF93CDB777
S1130A20DEB72A970FB6F894DEBF0FBECDBF7C01A8
S1130A30892B49F483E792E00E94FB016894EE2439
S1130A40E2F8F12C0CC084E892E00E94FB0180E300
S1130A508E0D0E94C7028CE892E00E94FB0185E99A
S1130A6092E00E94FB0101E010E043C0AE01475F49
S1130A705F4FBE01695F7F4FC8010E9487028DE509
S1130A8093E00E94FB0180E3800F0E94C7028AE981
S1130A9092E00E94FB01EF81F8854AE0BE016F5F9E
S1130AA07F4F86AD97AD0E942514CE0101960E941A
S1130AB0FB01E985FA85EC5BFF4F80819181892BED
S1130AC091F485EA92E00E94FB01E985FA854AE007
S1130AD0BE016F5F7F4F86AD97AD0E942514CE0196
S1130AE001960E94FB0188EA92E00E94FB010F5FDD
S1130AF01F4FE016F1060CF0B9CF8AE00E94C7023E
S1130B008AE00E94C70282E190E00E94DC028BEA44
S1130B1092E00E94FB018AE00E94C70280910401D6
S1130B2090910501039790930501809304018EE44D
S1130B3094E00E94F5022A960FB6F894DEBF0FBE29
S1130B40CDBFDF91CF911F910F91FF90EF9008954A
S1130B50CF93DF93CCE2D0E0D0930501C09304019E
S1130B608AE090E00E94CE028091040190910501F8
S1130B700A9790930501809304018DE290E00E940E
S1130B80DC028EEB92E00E94FB01809104019091C3
S1130B900501019790930501809304010E94CE0200
S1130BA02FEF87EA91E6215080409040E1F700C0A2
S1130BB000008AE00E94C702D0930501C09304019B
S1130BC08AE090E00E94CE02809104019091050198
S1130BD00A9790930501809304018AE090E00E94B3
S1130BE0DC028DEE92E00E94FB0186E290E00E941E
S1130BF0DC0289EF92E00E94FB0180910401909154
S1130C000501029790930501809304010E94CE028E
S1130C102FEF87EA91E6215080409040E1F700C031
S1130C2000008AE00E94C702DF91CF9108958CE210
S1130C3090E090930501809304010E94CE022FEF6F
S1130C4083ED90E3215080409040E1F700C0000024
S1130C508AE00E94C70208950F931F93CF93DF93F6
S1130C6000D000D01F92CDB7DEB78C018CE290E0AB
S1130C7090930501809304018CE090E00E94CE02E1
S1130C8080910401909105010C9790930501809344
S1130C90040187E090E00E94DC0280E293E00E947D
S1130CA0FB014AE0BE016F5F7F4FC8010E9425141B
S1130CB0CE0101960E94FB018091040190910501EF
S1130CC00E94CE022FEF83ED90E3215080409040AC
S1130CD0E1F700C000008AE00E94C7020F900F9065
S1130CE00F900F900F90DF91CF911F910F91089566
S1130CF0CF93DF93EC018CE290E090930501809315
S1130D0004018CE090E00E94CE0280910401909155
S1130D1005010C979093050180930401209749F4F1
S1130D208DE090E00E94DC0287E293E00E94FB01E8
S1130D3010C08FE090E00E94DC0284E892E00E9400
S1130D40FB018C2F805D0E94C7028DE293E00E941C
S1130D50FB0180910401909105010E94CE022FEFC6
S1130D6083ED90E3215080409040E1F700C0000003
S1130D708AE00E94C702DF91CF9108950F931F93D9
S1130D80CF93DF93CDB7DEB72A970FB6F894DEBFC3
S1130D900FBECDBF8CE290E09093050180930401D7
S1130DA0109273041092720480E090E00E9409058E
S1130DB08AE00E94C70280918E0490918F04892B4F
S1130DC049F08EE090E00E94DC0285E393E00E940B
S1130DD0FB0116C084E190E00E94DC0284E493E00D
S1130DE00E94FB014AE0BE016B5F7F4F80918C043F
S1130DF090918D040E942514CE0105960E94FB015A
S1130E008AE00E94C7028AE00E94C7028AE00E9428
S1130E10C702809104019091050104979093050104
S1130E208093040101E010E0C3C0AE014D5F5F4F49
S1130E30BE016F5F7F4FC8010E94870287E593E080
S1130E400E94FB0180E3800F0E94C702E981FA81BE
S1130E50DF01A05CBF4F8D919C91892B29F085E621
S1130E6093E00E94FB012EC026AD37AD80918C0427
S1130E7090918D042817390729F481E793E00E94A3
S1130E80FB0120C0281739075CF440918E0450916F
S1130E908F04452B29F485E693E00E94FB0112C0E0
S1130EA08217930734F080918E0490918F04892BDC
S1130EB029F08FE793E00E94FB0104C08AE893E0E5
S1130EC00E94FB01E981FA814AE0BE01685F7F4F1D
S1130ED086AD97AD0E942514CE0108960E94FB01B1
S1130EE0EB81FC81EC5BFF4F80819181892B09F0C0
S1130EF04EC081EA93E00E94FB01EB81FC81DF019B
S1130F00A05CBF4F8D919C91892B29F085E693E0DD
S1130F100E94FB012EC026AD37AD80918C049091C8
S1130F208D042817390729F481E793E00E94FB0117
S1130F3020C0281739075CF440918E0450918F0427
S1130F40452B29F485E693E00E94FB0112C0821729
S1130F50930734F080918E0490918F04892B29F0AB
S1130F608FE793E00E94FB0104C08AE893E00E94AB
S1130F70FB01EB81FC814AE0BE016B5F7F4F86ADD4
S1130F8097AD0E942514CE0105960E94FB018AE0CC
S1130F900E94C7028AE00E94C702809104019091D6
S1130FA00501029790930501809304010F5F1F4F81
S1130FB0053011050CF439CF80910401909105019D
S1130FC00E94CE022FEF83E294EF215080409040A4
S1130FD0E1F700C000008AE00E94C7022A960FB61B
S1130FE0F894DEBF0FBECDBFDF91CF911F910F915B
S1130FF008950F931F93CF93DF93CDB7DEB7279751
S11310000FB6F894DEBF0FBECDBF8C01AE014D5FAD
S11310105F4FBE016F5F7F4F0E9487028CE290E0BA
S11310209093050180930401C8010E9409058AE098
S11310300E94C70287E190E00E94DC0286EA93E006
S11310400E94FB01E981FA814AE0BE016B5F7F4F98
S113105086AD97AD0E942514CE0105960E94FB0132
S11310608BEB93E00E94FB018AE00E94C702898116
S11310709A810E94F50280910401909105010297E2
S113108090930501809304018AE00E94C7028AE0DC
S11310900E94C702809104019091050102979093E8
S11310A00501809304018AE090E00E94DC028DEB4C
S11310B093E00E94FB0180910401909105010E943C
S11310C0CE02E981FA8182819381218DEB81FC81B9
S11310D091838083AB81BC8158962C935897DC967E
S11310E02D913C91DD972F5F3F4FDD963C932E93DE
S11310F0DC97DE962D913C91DF97280F391FDF9600
S11311003C932E93DE9749815A81FA0124AD35AD83
S11311102150310935AF24AF26AD37AD281B390B2B
S113112037AF26AF0197B1F4CD018E5B9F4F21E01D
S113113030E0FC01318320838BE090E0DF969C93C8
S11311408E93DE97DA01AE5BBF4F2D933C93FA0189
S113115097AF86AFCA010E9408028B819C810E94CE
S11311600802FFEF21EE84E0F15020408040E1F7D7
S113117000C000008AE00E94C70227960FB6F894C8
S1131180DEBF0FBECDBFDF91CF911F910F910895A8
S113119082E084B981E080936F001092800078949B
S11311A00895E1E8F0E080818160808385B1826008
S11311B085B98AE18A95F1F700C085B18D7F85B93B
S11311C0109285001092840081E4808381E286BBC2
S11311D0B59BFECF109285001092840081E080932D
S11311E0810081E286BB10924D0410924C04B59BA1
S11311F0FECF609186007091870080E090E00E94AD
S11312004A0E2DEC3CEC48EE53E40E94D60DE1E886
S1131210F0E0308121E0232720830895AF92BF922C
S1131220CF92DF92EF92FF920F931F93CF93DF93AE
S11312300E94D1086B017C01C0E0D0E000E010E026
S1131240A12CB12C20E030E040E051E4C701B6010C
S11312500E94FA0E1816A4F420E030E040EF51E4A6
S1131260C701B6010E94D10D882354F40F5F1F4FAC
S1131270093C1105A4F5C0E0D0E0A12CB12C28C094
S113128020E030E04CE052E4C701B6010E94FA0EBF
S11312901816B4F420E030E044E652E4C701B60185
S11312A00E94D10D882364F48FEFA81AB80A99EC30
S11312B0A916B104BCF4C0E0D0E000E010E008C01E
S11312C02196C93CD1058CF400E010E0A12CB12C8E
S11312D08FEC97E00197F1F700C00000B3CF81E0F5
S11312E090E005C082E090E002C083E090E0DF91EE
S11312F0CF911F910F91FF90EF90DF90CF90BF900F
S1131300AF9008950E940E090397E1F70E940E0919
S11313109C012150310922303105C0F70895CF9244
S1131320DF92EF92FF920F931F93CF93DF93CDB78A
S1131330DEB72A970FB6F894DEBF0FBECDBF8C017F
S1131340AE014D5F5F4FBE016F5F7F4F0E9487020A
S1131350EE24E394F12C0F2EFCE2CF2ED12CF02DB1
S1131360D0920501C0920401C8010E9409058AE0D7
S11313700E94C70287E190E00E94DC0286EA93E0C3
S11313800E94FB01E981FA814AE0BE01685F7F4F58
S113139086AD97AD0E942514CE0108960E94FB01EC
S11313A08BEB93E00E94FB018AE00E94C7028981D3
S11313B09A810E94F502809104019091050102979F
S11313C090930501809304010E94CE022FEF83EDD8
S11313D090E3215080409040E1F700C000008AE093
S11313E00E94C702D0920501C0920401C8010E9464
S11313F009058AE00E94C70287E190E00E94DC02AE
S113140086EA93E00E94FB01E981FA814AE0BE0189
S1131410685F7F4F86AD97AD0E942514CE01089674
S11314200E94FB018BEB93E00E94FB018AE00E9487
S1131430C70289819A810E94F502809104019091EA
S11314400501029790930501809304018AE00E94AC
S1131450C7028AE00E94C7028091040190910501AD
S113146002979093050180930401E981FA81208118
S113147031818281938128173907F1F4E114F10451
S1131480D9F082E290E00E94DC0288EC93E00E94B2
S1131490FB0180910401909105010E94CE020E94FB
S11314A08209019731F48AE00E94C702C8010E94B0
S11314B0F907E12CF12C4FCFDF01A05CBF4F8D91D8
S11314C09C91892BD9F08BE090E00E94DC028BEE9A
S11314D093E00E94FB0180910401909105010E9418
S11314E0CE022FEF87EA91E6215080409040E1F749
S11314F000C000008AE00E94C702D9C086AD97AD43
S11315004597D9F480E190E00E94DC0287EF93E0F4
S11315100E94FB0180910401909105010E94CE027A
S11315202FEF87EA91E6215080409040E1F700C018
S113153000008AE00E94C702BAC08CE090E00E94DA
S1131540DC0288E094E00E94FB0180910401909108
S113155005010E94CE020E9482096C012FEF81EEE8
S113156094E0215080409040E1F700C000008AE000
S11315700E94C7028CE290E09093050180930401DD
S1131580C8010E9409058AE00E94C70287E190E031
S11315900E94DC0286EA93E00E94FB01E981FA8161
S11315A04AE0BE016B5F7F4F86AD97AD0E94251464
S11315B0CE0105960E94FB018BEB93E00E94FB0198
S11315C08AE00E94C70289819A810E94F502809173
S11315D00401909105010297909305018093040101
S11315E08AE00E94C7028AE00E94C7028091040137
S11315F0909105010297909305018093040121E0E5
S1131600C216D104F9F488E090E00E94DC0285E17E
S113161094E00E94FB0189819A810E9408028091D2
S11316200401909105010E94CE028FEF93ED20E317
S1131630815090402040E1F700C000008AE00E9401
S1131640C70289CE82E0C816D104D9F48BE090E0B9
S11316500E94DC028EE194E00E94FB01809104016F
S1131660909105010E94CE029FEF27EA81E69150F6
S113167020408040E1F700C000008AE00E94C702D9
S113168016C08AE294E00E94FB01809104019091CB
S113169005010E94CE029FEF23ED80E3915020408C
S11316A08040E1F700C000008AE00E94C702EB819D
S11316B0FC81EC5BFF4F80819181892B09F042C151
S11316C08CE290E09093050180930401C8010E948C
S11316D009058AE00E94C70287E190E00E94DC02CB
S11316E086EA93E00E94FB01EB81FC814AE0BE01A3
S11316F0685F7F4F86AD97AD0E942514CE01089692
S11317000E94FB018BEB93E00E94FB018AE00E94A4
S1131710C7028B819C810E94F50280910401909103
S11317200501029790930501809304018AE00E94C9
S1131730C7028AE00E94C7028091040190910501CA
S113174002979093050180930401EB81FC81DF01F2
S1131750A05CBF4F8D919C91892BD9F08BE090E0D8
S11317600E94DC028BEE93E00E94FB018091040155
S1131770909105010E94CE029FEF23ED80E39150EA
S113178020408040E1F700C000008AE00E94C702C8
S1131790D9C086AD97AD4597D9F480E190E00E9419
S11317A0DC0287EF93E00E94FB0180910401909199
S11317B005010E94CE029FEF27EA81E69150204066
S11317C08040E1F700C000008AE00E94C702BAC06E
S11317D08CE090E00E94DC0288E094E00E94FB012F
S11317E080910401909105010E94CE020E94820919
S11317F07C019FEF21EE84E0915020408040E1F78E
S113180000C000008AE00E94C7028CE290E090933E
S1131810050180930401C8010E9409058AE00E9421
S1131820C70287E190E00E94DC0286EA93E00E940E
S1131830FB01EB81FC814AE0BE016B5F7F4F86AD0B
S113184097AD0E942514CE0105960E94FB018BEBF7
S113185093E00E94FB018AE00E94C7028B819C8175
S11318600E94F502809104019091050102979093E2
S11318700501809304018AE00E94C7028AE00E9465
S1131880C70280910401909105010297909305018C
S11318908093040191E0E916F104F9F488E090E002
S11318A00E94DC0285E194E00E94FB018B819C8113
S11318B00E94080280910401909105010E94CE02C9
S11318C02FEF83ED90E3215080409040E1F700C07A
S11318D000008AE00E94C702F3CE22E0E216F1047F
S11318E0D9F48BE090E00E94DC028EE194E00E9447
S11318F0FB0180910401909105010E94CE028FEFBB
S113190093ED20E3815090402040E1F700C00000B7
S11319108AE00E94C70216C08AE294E00E94FB019A
S113192080910401909105010E94CE028FEF93ED06
S113193020E3815090402040E1F700C000008AE09D
S11319400E94C7022A960FB6F894DEBF0FBECDBF21
S1131950DF91CF911F910F91FF90EF90DF90CF9087
S11319600895EF92FF920F931F93CF93DF9300D0CC
S11319701F92CDB7DEB78CE090E00E94F0010E9488
S1131980C8080E9438010E94D6010E942C130E94AC
S113199017060E94A8050E941706EE24E394F12C72
S11319A0EEC0C7010E942C060E94AF0100E010E0C7
S11319B016C080EF96E00E94080280E795E00E943E
S11319C0080286EB95E00E94080284E994E00E94F4
S11319D008028EE494E00E9408020F5F1F4F023059
S11319E011053CF381E090E09093730480937204BA
S11319F001E010E00AC00E941706C8010E947806A0
S1131A00C8010E948F090F5F1F4F053011059CF319
S1131A1010927304109272040CE210E0109305010A
S1131A200093040180E090E00E9409058091040184
S1131A30909105010E94CE022FEF83ED90E3215097
S1131A4080409040E1F700C000008AE00E94C70295
S1131A50109305010093040180E090E00E940905C1
S1131A608AE00E94C7028AE00E94C70280910401B2
S1131A709091050102979093050180930401809150
S1131A808E0490918F04892BD9F08EE090E00E940F
S1131A90DC0285E393E00E94FB01809104019091B4
S1131AA005010E94CE022FEF87EA91E62150804083
S1131AB09040E1F700C000008AE00E94C7025AC0CB
S1131AC080918C0490918D048131910544F041976B
S1131AD029F58091900490919104892BF9F08CE080
S1131AE090E00E94DC028EE394E00E94FB018EE40D
S1131AF094E00E94080280910401909105010E94E3
S1131B00CE022FEF83ED90E3215080409040E1F727
S1131B1000C000008AE00E94C7027ECF84E190E00A
S1131B200E94DC0284E493E00E94FB014AE0BE01CF
S1131B306F5F7F4F80918C0490918D040E942514D7
S1131B40CE0101960E94FB0182E493E00E94FB0116
S1131B5080910401909105010E94CE022FEF87EA43
S1131B6091E6215080409040E1F700C000008AE0F7
S1131B700E94C7020E94BE062FEFE21AF20A88EE04
S1131B80E81683E0F8060CF40CCF80E090E00F90A8
S1131B900F900F90DF91CF911F910F91FF90EF90D5
S1131BA008950E94850E08F481E008950E94EA0DCC
S1131BB00C94C00E0E94B90E58F00E94B20E40F070
S1131BC029F45F3F29F00C94A90E51110C94F40EE2
S1131BD00C94AF0E0E94D10E68F39923B1F35523F0
S1131BE091F3951B550BBB27AA276217730784072C
S1131BF038F09F5F5F4F220F331F441FAA1FA9F3C2
S1131C0035D00E2E3AF0E0E832D091505040E695AF
S1131C10001CCAF72BD0FE2F29D0660F771F881F10
S1131C20BB1F261737074807AB07B0E809F0BB0B03
S1131C30802DBF01FF2793585F4F3AF09E3F510517
S1131C4078F00C94A90E0C94F40E5F3FE4F3983EE4
S1131C50D4F3869577956795B795F7959F5FC9F700
S1131C60880F911D9695879597F90895E1E0660F81
S1131C70771F881FBB1F621773078407BA0720F0FA
S1131C80621B730B840BBA0BEE1F88F7E095089563
S1131C90E89409C097FB3EF4909580957095619502
S1131CA07F4F8F4F9F4F9923A9F0F92F96E9BB27B8
S1131CB09395F695879577956795B795F111F8CF34
S1131CC0FAF4BB0F11F460FF1BC06F5F7F4F8F4F9F
S1131CD09F4F16C0882311F096E911C0772321F095
S1131CE09EE8872F762F05C0662371F096E8862F2D
S1131CF070E060E02AF09A95660F771F881FDAF784
S1131D00880F9695879597F90895990F0008550FB0
S1131D10AA0BE0E8FEEF16161706E807F907C0F06D
S1131D2012161306E407F50798F0621B730B840B75
S1131D30950B39F40A2661F0232B242B252B21F44F
S1131D4008950A2609F4A140A6958FEF811D811DEF
S1131D50089597F99F6780E870E060E008959FEF29
S1131D6080EC089500240A9416161706180609062E
S1131D70089500240A9412161306140605060895FD
S1131D80092E0394000C11F4882352F0BB0F40F485
S1131D90BF2B11F460FF04C06F5F7F4F8F4F9F4FC5
S1131DA0089557FD9058440F551F59F05F3F71F047
S1131DB04795880F97FB991F61F09F3F79F08795AE
S1131DC00895121613061406551FF2CF4695F1DF37
S1131DD008C0161617061806991FF1CF86957105C7
S1131DE0610508940895E894BB2766277727CB01FB
S1131DF097F908950E94850E08F48FEF0895A0E1E5
S1131E00B0E0E5E0FFE00C9490127C011B016A0154
S1131E10FC0117821682838181FF44C39E012F5FD8
S1131E203F4F3901F7019381F10193FD859193FFB0
S1131E3081911F01882309F431C3853239F493FD5C
S1131E40859193FF81911F01853239F4B70190E0A8
S1131E500E944A1456016501E5CF10E0512C912CE3
S1131E60FFE1F915D8F08B3279F038F4803279F04B
S1131E708332A1F4F92DF0612EC08D3261F08033EC
S1131E8069F4292D21602DC0392D3260932E892DBE
S1131E908460982E2AC0E92DE86015C097FC2DC0F7
S1131EA020ED280F2A3088F496FE06C03AE0139FEE
S1131EB0200D1124122F19C08AE0589E200D1124E0
S1131EC0522EE92DE0629E2E10C08E3231F496FC23
S1131ED0E5C2F92DF0649F2E08C08C3621F4292D1B
S1131EE02068922E02C0883641F4F10193FD859159
S1131EF093FF81911F018111B3CF9BEB980F933016
S1131F0020F4992D9061805E07C09BE9980F93306F
S1131F1008F066C1992D9F7E96FF16E09F73992E57
S1131F20853619F49064992E08C0863621F4392F29
S1131F303068932E02C01111115097FE07C01C3354
S1131F4050F444244394410E27E00BC0183038F079
S1131F5027E017E005C027E09CE3492E02C0212FAB
S1131F60412C560184E0A80EB11CF60160817181F8
S1131F7082819381042DA3010E9437136C01F9819E
S1131F80FC87F0FF02C0F3FF06C091FC06C092FE7E
S1131F9006C000E205C00DE203C00BE201C000E090
S1131FA08C858C7019F001115AC29BC297FE10C027
S1131FB04C0CFC85F4FF04C08A81813309F44A94F3
S1131FC0141474F528E0241578F588E0482E2CC004
S1131FD096FC2AC0812F90E08C159D059CF03CEF67
S1131FE0C3163FEFD30674F0892D8068982E0AC07B
S1131FF0E2E0F0E0EC0FFD1FE10FF11D8081803382
S113200019F411501111F4CF97FE0EC044244394D7
S1132010410E812F90E0C816D9062CF41C1904C077
S11320204424439401C010E097FE06C01C141D0410
S113203034F4C601019605C085E090E002C081E059
S113204090E001110196112331F0212F30E02F5F30
S11320503F4F820F931F252D30E08217930714F40E
S1132060581A01C0512C892D897049F4552039F032
S1132070B70180E290E00E944A145A94F7CF0023FB
S113208029F0B701802F90E00E944A1493FC09C004
S1132090552039F0B70180E390E00E944A145A9425
S11320A0F7CF97FE4CC04601D7FE02C0812C912C7D
S11320B0C60188199909F301E80FF91FFE87ED8716
S11320C0960124193109388B2F87012F10E01195BF
S11320D0019511093FEF8316930629F4B7018EE2A7
S11320E090E00E944A14C814D9044CF08F85988952
S11320F08815990524F4ED85FE85818101C080E36E
S1132100F1E08F1A91082D853E852F5F3F4F3E8762
S11321102D87801691062CF0B70190E00E944A1496
S1132120D9CFC814D90441F49A81963320F4953355
S113213019F43C8534FF81E3B70190E04EC08A81F5
S1132140813319F09C859F7E9C87B70190E00E94A3
S11321504A14111105C094FC18C085E690E017C01C
S1132160B7018EE290E00E944A141E5F82E001E013
S1132170080FF301E80FF11D8081B70190E00E9480
S11321804A14802F0113F3CFE6CF85E490E0B70122
S11321900E944A14D7FC06C0C114D10441F4EC8552
S11321A0E4FF05C0D194C194D1088DE201C08BE253
S11321B0B70190E00E944A1480E32AE0C216D104D9
S11321C02CF08F5FFAE0CF1AD108F7CFB70190E077
S11321D00E944A14B701C601C0960E944A1454C111
S11321E0833631F0833779F0833509F056C020C047
S11321F0560132E0A30EB11CF6018081898301E00F
S113220010E0630112C05601F2E0AF0EB11CF601FA
S1132210C080D18096FE03C0612F70E002C06FEFD2
S11322207FEFC6010E941A148C01F92DFF7714C0A8
S1132230560122E0A20EB11CF601C080D18096FEA8
S113224003C0612F70E002C06FEF7FEFC6010E94F0
S11322500F148C01F92DF0689F2EF3FD1AC0852D03
S113226090E008171907A8F4B70180E290E00E94F3
S11322704A145A94F4CFF60197FC859197FE819104
S11322806F01B70190E00E944A1451105A94015012
S113229011090115110579F7F7C0843611F0893653
S11322A061F5560197FE09C024E0A20EB11CF601A7
S11322B060817181828193810AC0F2E0AF0EB11C0A
S11322C0F60160817181072E000C880B990BF92DA2
S11322D0FF769F2E97FF09C0909580957095619524
S11322E07F4F8F4F9F4FF0689F2E2AE030E0A3016D
S11322F00E948614C82EC6183FC0092D853721F4C4
S11323000F7E2AE030E01DC0097F8F3691F018F46B
S1132310883559F0C3C0803719F0883711F0BEC032
S1132320006104FF09C0046007C094FE08C0066091
S113233006C028E030E005C020E130E002C020E122
S113234032E0560107FF09C084E0A80EB11CF60173
S1132350608171818281938108C0F2E0AF0EB11C6B
S1132360F6016081718180E090E0A3010E948614EF
S1132370C82EC6180F77902E96FE0BC0092D0E7F1F
S1132380C11650F494FE0AC092FC08C0092D0E7EBA
S113239005C0DC2C092D03C0DC2C01C0D12E04FFA8
S11323A00DC0FE01EC0DF11D8081803311F4097E16
S11323B009C002FF06C0D394D39404C0802F86784A
S11323C009F0D39403FD11C000FF06C01C2DD514E1
S11323D080F4150D1D190DC0D51458F4B70180E211
S11323E090E00E944A14D394F7CFD51410F45D18EA
S11323F001C0512C04FF10C0B70180E390E00E949B
S11324004A1402FF17C001FD03C088E790E002C030
S113241088E590E0B7010CC0802F867859F001FF61
S113242002C08BE201C080E207FD8DE2B70190E0BB
S11324300E944A14C11638F4B70180E390E00E9468
S11324404A141150F7CFCA94F301EC0DF11D8081A9
S1132450B70190E00E944A14C110F5CF15C0F4E012
S1132460F51560F584E0581A93FE1FC0011127C0CA
S11324702C8523FF2AC008E610E0392D3071932EF5
S1132480F8018491811124C0552009F4E4CCB701EA
S113249080E290E00E944A145A94F6CFF7018681B4
S11324A0978126C08FEF9FEF23C0B70180E290E0B1
S11324B00E944A145A945110F8CFD8CF512CB70126
S11324C0802F90E00E944A14D3CF0CE610E0D5CFC1
S11324D091108052B70190E00E944A140F5F1F4F81
S11324E0CFCF23E0251510F483E0BDCF512CC0CF0E
S11324F06096E2E10C94AC1297FB072E16F400945C
S113250007D077FD09D00E94C71207FC05D03EF41E
S1132510909581959F4F0895709561957F4F08958B
S11325202F923F924F925F926F927F928F929F92DF
S1132530AF92BF92CF92DF92EF92FF920F931F93CD
S1132540CF93DF93CDB7DEB7CA1BDB0B0FB6F8947E
S1132550DEBF0FBECDBF09942A88398848885F84BE
S11325606E847D848C849B84AA84B984C884DF802F
S1132570EE80FD800C811B81AA81B981CE0FD11D13
S11325800FB6F894DEBF0FBECDBFED010895AA1BB0
S1132590BB1B51E107C0AA1FBB1FA617B70710F04A
S11325A0A61BB70B881F991F5A95A9F7809590957C
S11325B0BC01CD0108958F929F92AF92BF92CF92AA
S11325C0DF92EF92FF92CF93DF93EC0168817981E0
S11325D08A819B81611571058105910521F464E26D
S11325E079ED8BE597E02DE133EF41E050E00E9477
S11325F0F41449015A019B01AC01A7EAB1E40E9419
S113260013156B017C01ACEEB4EFA50194010E949B
S11326102115DC01CB018C0D9D1DAE1DBF1DB7FF27
S113262003C00197A109B04888839983AA83BB8317
S11326309F77DF91CF91FF90EF90DF90CF90BF9085
S1132640AF909F908F9008950E94DB12089580E0D0
S113265091E00E94DB120895A0E0B0E080930001B5
S113266090930101A0930201B093030108952830CF
S113267008F027E03327DA01990F311D87FD9160B7
S113268000966105710539F432602E5F3D9330E3A5
S11326902A95E1F708959F3F30F080387105610570
S11326A009F03C5F3C5F3D93913008F08068911DD8
S11326B0DF93CF931F930F93FF92EF92192F987F7D
S11326C09695E92F96959695E90FFF27E653FF4FC8
S11326D099273327EE24FF24A701E70105900894E6
S11326E0079428F4360FE71EF81E491F511D660F84
S11326F0771F881F991F0694A1F70590079428F463
S1132700E70EF81E491F561FC11D770F881F991F1A
S1132710661F0694A1F70590079428F4F80E491F44
S1132720561FC71FD11D880F991F661F771F069458
S1132730A1F70590079420F4490F561FC71FD81F0F
S1132740990F661F771F881F0694A9F78491109527
S1132750177041F0D695C79557954795F794E79428
S11327601A95C1F7E0E7F0E068941590159135915A
S11327706591959105907FE27395E118F10A430BF9
S1132780560BC90BD009C0F7E10CF11E431F561FAD
S1132790C91FD01D7EF4703311F48A95E6CFE894F6
S11327A0015030F0080F0AF40027021708F4202F14
S11327B02395022F7A3328F079E37D932A95E9F75C
S11327C010C07D932A9589F6069497956795379559
S11327D017951794E118F10A430B560BC90BD0094E
S11327E098F023957E9173957A3308F070E37C9387
S11327F02013B8F77E9170617D9330F0839571E377
S11328007D9370E32A95E1F71124EF90FF900F91E7
S11328101F91CF91DF91992787FD90950895FC0131
S11328200590615070400110D8F7809590958E0FF7
S11328309F1F0895FC016150704001900110D8F76A
S1132840809590958E0F9F1F0895BB274A3031F4D1
S1132850992322F4BDE2909581959F4F0C943114F5
S1132860BB27FB015527AA27880F991FAA1FA41766
S113287010F0A41B83955051B9F7A05DAA3308F05A
S1132880A95DA193009779F7B111B1931192CB018E
S11328900C94E4140F931F93CF93DF93FB012381D4
S11328A021FD03C08FEF9FEF2CC022FF16C046818D
S11328B05781248135814217530744F4A081B181A3
S11328C09D012F5F3F4F318320838C932681378175
S11328D02F5F3F4F3783268314C08B01EC01FB012C
S11328E00084F185E02D0995892BE1F6D80116962F
S11328F08D919C911797019617969C938E9316979A
S1132900CE01DF91CF911F910F910895FA01AA276B
S1132910283051F1203181F1E8946F936E7F6E5F1E
S11329207F4F8F4F9F4FAF4FB1E03ED0B4E03CD0CC
S1132930670F781F891F9A1FA11D680F791F8A1FAF
S1132940911DA11D6A0F711D811D911DA11D20D016
S113295009F468943F912AE0269F11243019305DD0
S11329603193DEF6CF010895462F4770405D4193C1
S1132970B3E00FD0C9F7F6CF462F4F70405D4A330E
S113298018F0495D31FD4052419302D0A9F7EACFD6
S1132990B4E0A6959795879577956795BA95C9F705
S11329A000976105710508959B01AC010A2E0694F8
S11329B05795479537952795BA95C9F7620F731FB1
S11329C0841F951FA01D0895DC01FC01672F7191E0
S11329D07723E1F7329704C07C916D937083629101
S11329E0AE17BF07C8F30895052E97FB1EF4009495
S11329F00E940B1557FD07D00E94261507FC03D033
S1132A004EF40C940B1550954095309521953F4FFD
S1132A104F4F5F4F089590958095709561957F4FC6
S1132A208F4F9F4F08950E944815A59F900DB49F06
S1132A30900DA49F800D911D11240895B7FF0C944F
S1132A4013150E941315821B930B0895A1E21A2EED
S1132A50AA1BBB1BFD010DC0AA1FBB1FEE1FFF1F3E
S1132A60A217B307E407F50720F0A21BB30BE40B8E
S1132A70F50B661F771F881F991F1A9469F76095D5
S1132A807095809590959B01AC01BD01CF0108958F
S1132A90A29FB001B39FC001A39F700D811D11249B
S1132AA0911DB29F700D811D1124911D0895F894FC
S1052AB0FFCF52
S1132AB2010000002C004552524F523A2043616EED
S1132AC26E6F74204465616C2043617264210A0054
S1132AD24552524F5220696E2073656C656374507F
S1132AE26C6179657228290A00202B2D2D2D2D2D3C
S1132AF22D2D2D2D2D2D2B00207C23232323232329
S1132B0223232323237C00207C2000202020202038
S1132B122020202000207C23232323202020232361
S1132B2223237C00207C2020202020202020202001
S1132B32207C00207C2323232320552023232323AA
S1132B427C00207C202020205F205F202020207C0D
S1132B5200207C20202020205E20202020207C00B9
S1132B62207C20202020205F20202020207C002088
S1132B727C20202020202E20202020207C00207C4D
S1132B822020204552524F522020207C00207C23BA
S1132B92232323204E20232323237C00207C202054
S1132BA22028205620292020207C00207C20202040
S1132BB2202F205C202020207C00207C202020202C
S1132BC2282629202020207C00207C202020202F41
S1132BD2265C202020207C00207C23232323204CDD
S1132BE220232323237C00207C202020205C202FF0
S1132BF2202020207C00207C202020282626262914
S1132C022020207C00207C232323232056202323DE
S1132C1223237C00207C20202020205620202020DA
S1132C22207C004445414C45522753205455524E72
S1132C322E202000504C4159455220002753205445
S1132C4255524E2E00090909090027732068616E46
S1132C52643A205B005D5B005D09004465616C655C
S1132C62722069732073686F77696E673A005745FB
S1132C724C434F4D4520544F20544F5543484C45E7
S1132C825353204155544F4D4154454420504C41D7
S1132C925920424C41434B4A41434B0A004352455B
S1132CA2415445442042590A004E617468616E20C1
S1132CB252616D6F732C204B6576696E204C656989
S1132CC22C2026205175696E6E204672616479004B
S1132CD2526F756E6420004445414C45522753207F
S1132CE25455524E004465616C65722042555354EA
S1132CF2454421004465616C657220737461797383
S1132D0220776974682000202020202020506C61E4
S1132D127965722000204C4F5354207769746820DF
S1132D220020505553484544207769746820002098
S1132D32574F4E207769746820004552524F5220F3
S1132D42696E2064697370526573756C7473282993
S1132D520020616E6400596F75722063757272652A
S1132D626E742068616E643A205B005D00596F7571
S1132D722073706C6974210053504C49543F2028CD
S1132D8248495420666F72205945532920285354C8
S1132D92415920666F72204E4F2900596F752042A7
S1132DA255535445442100596F7520676F7420545C
S1132DB241504A41434B2100484954206F722053E9
S1132DC25441593F00596F75206869742100596F45
S1132DD2752073746179656421004552524F522003
S1132DE2696E20706C61795475726E28290044658D
S10F2DF2616C6572206869747321000034
S9030000FC
